{
  "contractName": "ExperienceChain",
  "abi": [
    {
      "inputs": [],
      "payable": false,
      "stateMutability": "nonpayable",
      "type": "constructor"
    },
    {
      "constant": false,
      "inputs": [],
      "name": "add_mentor",
      "outputs": [],
      "payable": false,
      "stateMutability": "nonpayable",
      "type": "function"
    },
    {
      "constant": false,
      "inputs": [],
      "name": "test",
      "outputs": [
        {
          "name": "_value",
          "type": "uint256"
        }
      ],
      "payable": false,
      "stateMutability": "nonpayable",
      "type": "function"
    },
    {
      "constant": false,
      "inputs": [
        {
          "name": "_employee",
          "type": "address"
        },
        {
          "name": "_skill_id",
          "type": "uint256"
        },
        {
          "name": "_hour",
          "type": "uint256"
        }
      ],
      "name": "add_skill",
      "outputs": [],
      "payable": false,
      "stateMutability": "nonpayable",
      "type": "function"
    },
    {
      "constant": true,
      "inputs": [
        {
          "name": "employee_adress",
          "type": "address"
        },
        {
          "name": "skill_id",
          "type": "uint256"
        }
      ],
      "name": "get_employee_data",
      "outputs": [
        {
          "name": "_skill_id",
          "type": "uint256"
        },
        {
          "name": "_mentor_address",
          "type": "address"
        },
        {
          "name": "_hour",
          "type": "uint256"
        }
      ],
      "payable": false,
      "stateMutability": "view",
      "type": "function"
    }
  ],
  "bytecode": "0x608060405234801561001057600080fd5b5060018060003373ffffffffffffffffffffffffffffffffffffffff1673ffffffffffffffffffffffffffffffffffffffff16815260200190815260200160002060006101000a81548160ff0219169083151502179055506104e0806100776000396000f300608060405260043610610062576000357c0100000000000000000000000000000000000000000000000000000000900463ffffffff1680633341f05414610067578063663d0b621461007e578063e11f5bf5146100d5578063f8a8fd6d14610170575b600080fd5b34801561007357600080fd5b5061007c61019b565b005b34801561008a57600080fd5b506100d3600480360381019080803573ffffffffffffffffffffffffffffffffffffffff1690602001909291908035906020019092919080359060200190929190505050610253565b005b3480156100e157600080fd5b50610120600480360381019080803573ffffffffffffffffffffffffffffffffffffffff169060200190929190803590602001909291905050506103eb565b604051808481526020018373ffffffffffffffffffffffffffffffffffffffff1673ffffffffffffffffffffffffffffffffffffffff168152602001828152602001935050505060405180910390f35b34801561017c57600080fd5b5061018561047b565b6040518082815260200191505060405180910390f35b60011515600160003373ffffffffffffffffffffffffffffffffffffffff1673ffffffffffffffffffffffffffffffffffffffff16815260200190815260200160002060009054906101000a900460ff1615151415156101fa57600080fd5b60018060003373ffffffffffffffffffffffffffffffffffffffff1673ffffffffffffffffffffffffffffffffffffffff16815260200190815260200160002060006101000a81548160ff021916908315150217905550565b600061025d610484565b60011515600160003373ffffffffffffffffffffffffffffffffffffffff1673ffffffffffffffffffffffffffffffffffffffff16815260200190815260200160002060009054906101000a900460ff1615151415156102bc57600080fd5b6000808673ffffffffffffffffffffffffffffffffffffffff1673ffffffffffffffffffffffffffffffffffffffff168152602001908152602001600020600085815260200190815260200160002060010154915060408051908101604052803373ffffffffffffffffffffffffffffffffffffffff1681526020018385018152509050806000808773ffffffffffffffffffffffffffffffffffffffff1673ffffffffffffffffffffffffffffffffffffffff168152602001908152602001600020600086815260200190815260200160002060008201518160000160006101000a81548173ffffffffffffffffffffffffffffffffffffffff021916908373ffffffffffffffffffffffffffffffffffffffff160217905550602082015181600101559050505050505050565b6000806000806000808773ffffffffffffffffffffffffffffffffffffffff1673ffffffffffffffffffffffffffffffffffffffff16815260200190815260200160002060008681526020019081526020016000209050848160000160009054906101000a900473ffffffffffffffffffffffffffffffffffffffff168260010154935093509350509250925092565b6000602a905090565b6040805190810160405280600073ffffffffffffffffffffffffffffffffffffffff1681526020016000815250905600a165627a7a7230582083bddec6508a2c2fe672fd39e65dbbfe9839dfbe7da110efa5bcf5235c83e57f0029",
  "source": "pragma solidity ^ 0.4 .18;\n\ncontract ExperienceChain {\n\n    function ExperienceChain() {\n        mentors_map[msg.sender] = true;\n    }\n\n    struct SkillData {\n        address mentor_address;\n        uint hour;\n    }\n\n    // map_1 : key = employee_id, value map_2 : key = skill_id, value = SkillData\n    mapping(address => mapping(uint => SkillData)) employees_data_map;\n    mapping(address => bool) mentors_map;\n\n    /*** MENTORS security ****/\n    modifier onlyMentor {\n        require(mentors_map[msg.sender] == true);\n        _;\n    }\n\n    function add_mentor() onlyMentor {\n        mentors_map[msg.sender] = true;\n    }\n\n    function test() public returns(uint _value) {\n        _value = 42;    \n    }\n\n    function add_skill(address _employee, uint _skill_id, uint _hour) onlyMentor {\n        var oldHours = employees_data_map[_employee][_skill_id].hour;\n        var skillData = SkillData({\n            mentor_address: msg.sender,\n            hour: _hour + oldHours\n        });\n        employees_data_map[_employee][_skill_id] = skillData;\n    }\n\n    function get_employee_data(address employee_adress, uint skill_id) public view returns(uint _skill_id, address _mentor_address, uint _hour) {\n        var skill_data = employees_data_map[employee_adress][skill_id];\n        return (skill_id, skill_data.mentor_address, skill_data.hour);\n    }\n}",
  "sourcePath": "/home/xtazy/Documents/projects/experience_chain/contracts/ExperienceChain.sol",
  "compiler": {
    "name": "solc",
    "version": "0.4.23+commit.124ca40d.Emscripten.clang"
  },
  "schemaVersion": "2.0.0",
  "updatedAt": "2018-04-22T10:18:03.296Z"
}